{
  "contractName": "DAOWalletFactory",
  "abi": [
    {
      "anonymous": false,
      "inputs": [
        {
          "indexed": false,
          "name": "addr",
          "type": "address"
        },
        {
          "indexed": false,
          "name": "id",
          "type": "uint256"
        }
      ],
      "name": "New",
      "type": "event"
    },
    {
      "constant": false,
      "inputs": [
        {
          "name": "_id",
          "type": "uint256"
        }
      ],
      "name": "create",
      "outputs": [
        {
          "name": "created",
          "type": "address"
        }
      ],
      "payable": false,
      "stateMutability": "nonpayable",
      "type": "function"
    }
  ],
  "bytecode": "0x608060405234801561001057600080fd5b506105d1806100206000396000f3006080604052600436106100405763ffffffff7c0100000000000000000000000000000000000000000000000000000000600035041663780900dc8114610045575b600080fd5b34801561005157600080fd5b5061005d600435610086565b6040805173ffffffffffffffffffffffffffffffffffffffff9092168252519081900360200190f35b60008161009161010e565b90815260405190819003602001906000f0801580156100b4573d6000803e3d6000fd5b506040805173ffffffffffffffffffffffffffffffffffffffff831681526020810185905281519293507f5ffa79b7144a1de65a6ea060c5a1147ba5dd9ef9597e960ce5f7648b604e9e1d929081900390910190a1919050565b6040516104878061011f833901905600608060405260028054600160a060020a031916905534801561002057600080fd5b50604051602080610487833981016040525160035560025460008054600160a060020a031916600160a060020a03909216919091179055610421806100666000396000f3006080604052600436106100565763ffffffff7c0100000000000000000000000000000000000000000000000000000000600035041663a8fbce00811461005a578063af640d0f14610098578063f3fef3a3146100bf575bfe5b005b34801561006657600080fd5b5061006f6100f0565b6040805173ffffffffffffffffffffffffffffffffffffffff9092168252519081900360200190f35b3480156100a457600080fd5b506100ad61010c565b60408051918252519081900360200190f35b3480156100cb57600080fd5b5061005873ffffffffffffffffffffffffffffffffffffffff60043516602435610112565b60025473ffffffffffffffffffffffffffffffffffffffff1681565b60035481565b6001805473ffffffffffffffffffffffffffffffffffffffff191673ffffffffffffffffffffffffffffffffffffffff848116919091179182905560008054604080517f095ea7b300000000000000000000000000000000000000000000000000000000815291841660048301526024820186905251939092169263095ea7b3926044808201936020939283900390910190829087803b1580156101b557600080fd5b505af11580156101c9573d6000803e3d6000fd5b505050506040513d60208110156101df57600080fd5b505160408051808201909152600c81527f415050524f56452052524f52000000000000000000000000000000000000000060208201529015156102ba576040517f08c379a00000000000000000000000000000000000000000000000000000000081526004018080602001828103825283818151815260200191508051906020019080838360005b8381101561027f578181015183820152602001610267565b50505050905090810190601f1680156102ac5780820380516001836020036101000a031916815260200191505b509250505060405180910390fd5b5060008054604080518082018252601481527f5a45524f204348414e47452057495448445241570000000000000000000000006020820190815291517fbfe07da600000000000000000000000000000000000000000000000000000000815273ffffffffffffffffffffffffffffffffffffffff8781166004830190815260248301889052606060448401908152845160648501528451929096169663bfe07da6968a968a969593949193608401929091908190849084905b8381101561038b578181015183820152602001610373565b50505050905090810190601f1680156103b85780820380516001836020036101000a031916815260200191505b50945050505050600060405180830381600087803b1580156103d957600080fd5b505af11580156103ed573d6000803e3d6000fd5b5050505050505600a165627a7a72305820e521000615348d41b91a06cdf9398cabc980b8c71f442c413a602398e309d41f0029a165627a7a7230582015b39815276426bea431f4a3097d9c5e0869d1cd69034c16c155ec7c0bc958500029",
  "source": "import 'contracts/DAOWallet.sol';\n\ncontract DAOWalletFactory{\n  event New(address addr, uint256 id);\n\n  function create(uint256 _id) returns(address created){\n    created = new DAOWallet(_id);\n    emit New(created, _id);\n  }\n}\n",
  "sourcePath": "/home/projects/smart-contracts/contracts/DAOWalletFactory.sol",
  "compiler": {
    "name": "solc",
    "version": "0.4.25+commit.59dbf8f1.Emscripten.clang"
  },
  "schemaVersion": "2.0.2",
  "updatedAt": "2019-07-17T09:07:44.231Z"
}