{
  "contractName": "SimpleWallet",
  "abi": [
    {
      "constant": true,
      "inputs": [],
      "name": "coldWallet",
      "outputs": [
        {
          "name": "",
          "type": "address"
        }
      ],
      "payable": false,
      "stateMutability": "view",
      "type": "function"
    },
    {
      "constant": true,
      "inputs": [],
      "name": "id",
      "outputs": [
        {
          "name": "",
          "type": "uint256"
        }
      ],
      "payable": false,
      "stateMutability": "view",
      "type": "function"
    },
    {
      "inputs": [
        {
          "name": "_id",
          "type": "uint256"
        }
      ],
      "payable": false,
      "stateMutability": "nonpayable",
      "type": "constructor"
    },
    {
      "payable": true,
      "stateMutability": "payable",
      "type": "fallback"
    },
    {
      "constant": false,
      "inputs": [
        {
          "name": "_contract",
          "type": "address"
        },
        {
          "name": "_amount",
          "type": "uint256"
        }
      ],
      "name": "withdraw",
      "outputs": [],
      "payable": false,
      "stateMutability": "nonpayable",
      "type": "function"
    }
  ],
  "bytecode": "0x608060405260008054600160a060020a031916736d17e2dc0824ddbd1bc298b111f6559fd7e852d717905534801561003657600080fd5b5060405160208061024183398101604052516001556101e78061005a6000396000f3006080604052600436106100565763ffffffff7c01000000000000000000000000000000000000000000000000000000006000350416636be13c92811461005a578063af640d0f14610098578063f3fef3a3146100bf575bfe5b005b34801561006657600080fd5b5061006f6100f0565b6040805173ffffffffffffffffffffffffffffffffffffffff9092168252519081900360200190f35b3480156100a457600080fd5b506100ad61010c565b60408051918252519081900360200190f35b3480156100cb57600080fd5b5061005873ffffffffffffffffffffffffffffffffffffffff60043516602435610112565b60005473ffffffffffffffffffffffffffffffffffffffff1681565b60015481565b604080517f7472616e7366657228616464726573732c75696e743235362900000000000000815281519081900360190181206000805463ffffffff7c010000000000000000000000000000000000000000000000000000000093849004908116909302845273ffffffffffffffffffffffffffffffffffffffff908116600485015260248401869052935193861693919260448082019391829003018183875af15050505050505600a165627a7a72305820e34ab89d097d5f39315e197b83ed7461e0fd75005caab47e3ef0517f234eb38f0029",
  "source": "pragma solidity ^0.4.25;\n\ncontract SimpleWallet{\n  \n  address public coldWallet = 0x6D17E2dC0824ddBD1BC298B111F6559fd7E852d7;\n  uint256 public id;\n\n  function SimpleWallet(uint256 _id){\n    id = _id;\n  }\n\n  /**\n   * @dev fallback function\n  */\n  function() payable public{\n    // Do NOT accept ETH\n    assert(false);\n  }\n\n\n  /**\n   * @dev Withdraws ERC20 tokens to coldWallet\n   */\n  function withdraw(address _contract, uint256 _amount) public{\n    _contract.call(bytes4(keccak256(\"transfer(address,uint256)\")), coldWallet, _amount);\n  }\n}\n",
  "sourcePath": "/home/projects/smart-contracts/contracts/SimpleWallet.sol",
  "compiler": {
    "name": "solc",
    "version": "0.4.25+commit.59dbf8f1.Emscripten.clang"
  },
  "schemaVersion": "2.0.2",
  "updatedAt": "2019-07-17T09:07:44.286Z"
}