{
  "contractName": "SimpleWalletFactory",
  "abi": [
    {
      "anonymous": false,
      "inputs": [
        {
          "indexed": false,
          "name": "addr",
          "type": "address"
        },
        {
          "indexed": false,
          "name": "id",
          "type": "uint256"
        }
      ],
      "name": "New",
      "type": "event"
    },
    {
      "constant": false,
      "inputs": [
        {
          "name": "_id",
          "type": "uint256"
        }
      ],
      "name": "create",
      "outputs": [
        {
          "name": "created",
          "type": "address"
        }
      ],
      "payable": false,
      "stateMutability": "nonpayable",
      "type": "function"
    }
  ],
  "bytecode": "0x608060405234801561001057600080fd5b5061038b806100206000396000f3006080604052600436106100405763ffffffff7c0100000000000000000000000000000000000000000000000000000000600035041663780900dc8114610045575b600080fd5b34801561005157600080fd5b5061005d600435610086565b6040805173ffffffffffffffffffffffffffffffffffffffff9092168252519081900360200190f35b60008161009161010e565b90815260405190819003602001906000f0801580156100b4573d6000803e3d6000fd5b506040805173ffffffffffffffffffffffffffffffffffffffff831681526020810185905281519293507f5ffa79b7144a1de65a6ea060c5a1147ba5dd9ef9597e960ce5f7648b604e9e1d929081900390910190a1919050565b6040516102418061011f833901905600608060405260008054600160a060020a031916736d17e2dc0824ddbd1bc298b111f6559fd7e852d717905534801561003657600080fd5b5060405160208061024183398101604052516001556101e78061005a6000396000f3006080604052600436106100565763ffffffff7c01000000000000000000000000000000000000000000000000000000006000350416636be13c92811461005a578063af640d0f14610098578063f3fef3a3146100bf575bfe5b005b34801561006657600080fd5b5061006f6100f0565b6040805173ffffffffffffffffffffffffffffffffffffffff9092168252519081900360200190f35b3480156100a457600080fd5b506100ad61010c565b60408051918252519081900360200190f35b3480156100cb57600080fd5b5061005873ffffffffffffffffffffffffffffffffffffffff60043516602435610112565b60005473ffffffffffffffffffffffffffffffffffffffff1681565b60015481565b604080517f7472616e7366657228616464726573732c75696e743235362900000000000000815281519081900360190181206000805463ffffffff7c010000000000000000000000000000000000000000000000000000000093849004908116909302845273ffffffffffffffffffffffffffffffffffffffff908116600485015260248401869052935193861693919260448082019391829003018183875af15050505050505600a165627a7a72305820db5275de72c051c202ad8f55f5f4e2bc1224b870a652d7e60099b67710976bb00029a165627a7a723058206df3c28d096ee6dc119b5bfa55d05d31febc41ad0cfa5f4481f8faa148aae0900029",
  "source": "import 'contracts/SimpleWallet.sol';\n\ncontract SimpleWalletFactory{\n  event New(address addr, uint256 id);\n\n  function create(uint256 _id) returns(address created){\n    created = new SimpleWallet(_id);\n    emit New(created, _id);\n  }\n}\n",
  "sourcePath": "/home/projects/smart-contracts/contracts/SimpleWalletFactory.sol",
  "compiler": {
    "name": "solc",
    "version": "0.4.25+commit.59dbf8f1.Emscripten.clang"
  },
  "schemaVersion": "2.0.2",
  "updatedAt": "2019-04-30T18:59:02.712Z"
}